:020000040800F2
:10000000F01400209501000863170008B5160008D9
:1000100061170008D3060008FD1A00080000000060
:10002000000000000000000000000000671700084A
:10003000170700080000000065170008691700088E
:10004000AF010008AF010008AF010008AF010008D0
:10005000AF010008AF010008AF010008AF010008C0
:10006000AF010008AF010008AF010008AF010008B0
:10007000AF010008AF010008AF010008AF010008A0
:10008000D5060008E1060008AF010008AF0100082E
:10009000AF010008AF010008AF010008AF01000880
:1000A000AF010008AF010008AF010008AF01000870
:1000B000AF010008AF010008AF010008AF01000860
:1000C000AF010008AF010008AF010008AF01000850
:1000D000AF010008AF010008F11A0008AF010008E5
:1000E00019070008AF010008AF01000800F002F88E
:1000F00000F040F80AA090E8000C82448344AAF182
:100100000107DA4501D100F035F8AFF2090EBAE87F
:100110000F0013F0010F18BFFB1A43F0010318473B
:1001200088290000A8290000103A24BF78C878C1A7
:10013000FAD8520724BF30C830C144BF04680C60ED
:10014000704700000023002400250026103A28BF35
:1001500078C1FBD8520728BF30C148BF0B60704739
:100160001FB59DE8030000F04DF900F01DF91FBD1B
:1001700010B510BD00F02AFA1146FFF7F1FF02F0AA
:1001800029F800F048FA03B4FFF7F2FF03BC00F0CF
:1001900079FA00000948804709480047FEE7FEE772
:1001A000FEE7FEE7FEE7FEE7FEE7FEE7FEE7FEE727
:1001B00004480549054A064B70470000C917000866
:1001C000ED000008F00E0020F0140020F0100020D8
:1001D000F010002070B50D460646041F00F0F6F83A
:1001E000D0F800C0C5B1E6B105F10B0020F007035F
:1001F000AB423CBF002070BD2068984238BFDCF89D
:10020000042013D3C11A08292FD3E01840F8041B87
:10021000236000F055F928E0304600F051F9002045
:1002200070BD2846BDE8704000F01BB9002A18BF19
:10023000A2423CBF94465268F8D30119914216D1AC
:1002400011680844984212D3C11A08293CBF2060A3
:10025000506808D35168E018416021681268114461
:10026000C91A01602360CCF80400201D70BD181F5E
:1002700000F0F7F8050007D021680A1F211D00F0E3
:1002800046F9201D00F01CF9284670BD10B5431C2E
:1002900002E010F8011B71B18107FAD14FF0013271
:1002A00002C88C1A8C4314EAC211F9D0C01A0A068B
:1002B00003D0C01E10BDC01A10BD0A0401D0801E9C
:1002C00010BD0902FCD0401E10BD032A40F2308050
:1002D00010F0030C00F0158011F8013BBCF1020F87
:1002E000624498BF11F801CB00F8013B38BF11F808
:1002F000013BA2F1040298BF00F801CB38BF00F81F
:10030000013B11F0030300F00281083AC0F00880BD
:1003100051F8043B083A51F804CBA0E80810F5E77F
:10032000121D5CBF51F8043B40F8043BAFF3008062
:10033000D20724BF11F8013B11F801CB48BF11F8D7
:10034000012B24BF00F8013B00F801CB48BF00F8A7
:10035000012B70474FF0000200B5134694469646B5
:10036000203922BFA0E80C50A0E80C50B1F12001C8
:10037000BFF4F7AF090728BFA0E80C5048BF0CC076
:100380005DF804EB890028BF40F8042B08BF7047D4
:1003900048BF20F8022B11F0804F18BF00F8012B46
:1003A000704770477047704770B5064C7C44064DE7
:1003B0007D4403E0206820448047241DAC42F9D1ED
:1003C00070BD000018270000182700000048704783
:1003D000980E0020704770477047704738B5044644
:1003E0000A4600206946AFF30080002808BF38BDE8
:1003F00002460099204600F0C8F8012038BD0120CF
:1004000000F0DDB8F8B5AFF30080054600200C46DB
:10041000102000BF0646A819A0420DD932466946F1
:100420000020AFF30080070008BF00F0C8F8009874
:10043000A04218BF0546C419FFF7C8FF056007466C
:10044000F01D20F007004619284600F097F8B44246
:1004500008BFF8BDA21B31463868BDE8F84000F07F
:1004600094B870B50646FFF7B1FF056806F10B00BA
:1004700020F00704B4429CBF002070BD2B466A6880
:10048000BAB11068A04210D304F1080188423CBF01
:100490005068586007D35168101941601168091BF2
:1004A000016058601460101D70BD13465268002A28
:1004B000E7D121462846FFF791FF0028DED170BD25
:1004C00070B50446051FFFF781FF0068002C14BFBC
:1004D000446870BD002C18BFAC423CBF2046646825
:1004E000F8D301680A18AA4218BF456003D12A68E8
:1004F00005461144016028684119A1421CBF6C6087
:1005000070BD6168696021680844286070BD10B5DD
:10051000203AC0F00B80B1E81850203AA0E81850FB
:10052000B1E81850A0E81850BFF4F5AF5FEA027CBC
:1005300024BFB1E81850A0E8185044BF18C918C02B
:10054000BDE810405FEA827C24BF51F8043B40F8CC
:10055000043B08BF7047D20728BF31F8023B48BFB1
:1005600011F8012B28BF20F8023B48BF00F8012BEF
:100570007047000000487047900E00200021016085
:10058000C0E90110704710207047034640688C4650
:10059000002818BF88423CBF03464068F8D318685B
:1005A0001844884207D00CF1030020F00700001D1A
:1005B000411A521A0146081D0A60FFF781BF10B5A3
:1005C00000F038F8BDE8104000F02EB87546FFF78F
:1005D000D1FFAE4605006946534620F00700854628
:1005E00018B020B5FFF7E4FDBDE820404FF000064D
:1005F0004FF000074FF000084FF0000B21F007010B
:10060000AC46ACE8C009ACE8C009ACE8C009ACE84D
:10061000C0098D46704710B50446AFF300802046F0
:10062000BDE81040FFF7AFBD002801D000F02AB8A8
:100630007047000010B5012805D0002103A000F08C
:1006400028F8012010BD09A1F8E7000053494752DE
:10065000544D454D3A204F7574206F662068656192
:1006600070206D656D6F7279000000003A2048655A
:100670006170206D656D6F727920636F7272757035
:100680007465640001491820ABBEFEE72600020035
:10069000704770B505460C460A2000E06D1C00F05E
:1006A00011F835B128780028F8D102E0641C00F078
:1006B00009F814B120780028F8D1BDE870400A206C
:1006C000AFF3008008B569468DF800000320ABBE8B
:1006D00008BDFEE7014800F095B80000600000206A
:1006E000014800F08FB80000A400002030B590F859
:1006F00040500124AC40C56B6C6004686360436883
:10070000102B036803D099600068C26030BD9A6006
:100710000068C16030BD70474FF4005000F096B9DA
:1007200072B6FEE710B590F821100022022905D01C
:100730000421816380F82020012010BD01680B682E
:1007400023F00E030B6001680B6823F001030B60BC
:1007500090F84030C46B012101FA03F3636080F824
:10076000211080F82020104610BD000010B590F830
:1007700021100024022903D00421816301243DE0DB
:1007800001680A6822F00E020A6001680A6822F015
:1007900001020A601A4A0168914201D1012121E057
:1007A000174A1432914201D110211BE0144A283219
:1007B000914201D1891515E0114A3C32914201D193
:1007C00089140FE00E4A5032914202D14FF4803129
:1007D00008E00B4A6432914202D14FF4801101E0EB
:1007E0004FF08071064A083A5160012180F82110CB
:1007F000002180F82010416B01B18847204610BDD0
:10080000080002402DE9F05FC16B0C6801680B68BD
:10081000D0F840C0042202FA0CF2494DDFF824A1BE
:10082000494E4A4FDFF828B1DFF828E122422CD0A8
:100830005A072AD50A68920603D40A6822F00402ED
:100840000A600168A94201D1042219E0514501D191
:10085000402215E0B14202D14FF4806210E0B9426B
:1008600002D14FF480420BE0594502D14FF480226F
:1008700006E0714502D14FF4800201E04FF0806242
:100880002F4908394A60C16A3BE04FF0020808FA74
:100890000CF818EA040F4FF000094FF0010235D0B0
:1008A0005FEA837832D50B689B0605D40B6823F08A
:1008B0000A030B6080F821200168A94201D10222BD
:1008C00019E0514501D1202215E0B14202D14FF487
:1008D000007210E0B94202D14FF400520BE05945CA
:1008E00002D14FF4003206E0714502D14FF40012FC
:1008F00001E04FF00072124908394A6080F82090F8
:10090000816A00291AD0BDE8F05F0847082505FA7A
:100910000CF5254212D01B0710D50B6823F00E03EF
:100920000B6090F84010C36B02FA01F159608263CA
:1009300080F8212080F82090016BE2E7BDE8F09F6D
:10094000080002401C000240300002404400024007
:10095000580002406C00024030B528B308C8134963
:1009600014221944B1FBF2F18900C163104981637B
:10097000022141771A6843F6F0718A43D0E90014E6
:100980002143D0E902452C432143046921434469B2
:1009900021438469214311431960002141630122ED
:1009A00042770177084630BD012030BDF8FFFDBF1A
:1009B0000000024070B5044690F820000025012890
:1009C0000CD0012084F8200094F821600020012E32
:1009D00006D084F820000225284670BD022070BD94
:1009E000022684F82160A0632068066826F00106CC
:1009F00006602046FFF77AFEE06A0028206801685A
:100A000002D041F00E0106E021F0040101602068EF
:100A1000016841F00A0101602068016841F00101AC
:100A20000160D9E770B5044600F01AF90546601C6C
:100A300002D004480078044400F012F9401BA042A0
:100A4000FAD370BD0000002070470000044910B5C3
:100A50000A68024202D00860FFF7F6FF10BD0000EE
:100A6000140401402DE9F84FDFF8B891002409F192
:100A7000040A0AF1040B23460F270BF1040EC9E008
:100A80000125A5402A40AA427DD1674ED1F804C075
:100A9000ACEB0608B44532D014DCBCF1030F3AD0FD
:100AA00009DCBCF1000F2AD0BCF1010F1CD0BCF155
:100AB000020F31D11DE0BCF1110F17D0BCF1120FA4
:100AC0002AD119E0B8F5881F19D006DCB8F5803FA7
:100AD00015D0B8F5801F1FD111E0B8F5001F0ED05A
:100AE000B8F5041F18D10AE0CB6815E0CB681B1DD0
:100AF00012E0CB6808330FE0CB680C330CE08B6856
:100B00002BB1012B4FF0080303D0456104E004230F
:100B100002E0056100E00023FF2A01D8064601E05B
:100B200000F104064FEA840501D9A5F12005D6F8A5
:100B3000008007FA05FC28EA0C0803FA05F548EAE4
:100B40000508C6F800804D68ED0062D5374DAE69E6
:100B500046F00106AE61AD6924F0030605F001051B
:100B60000095334D06EB050CDCF80850A607360F50
:100B700007FA06F825EA0805DFF8B880404503D1F2
:100B80004FF0000817E044E0DFF8AC80404502D1A8
:100B90004FF001080FE0DFF8A480404502D14FF08C
:100BA000020808E0DFF89880404502D14FF00308C2
:100BB00001E04FF0040808FA06F848EA0508CCF806
:100BC00008804D68D9F80060ED034D4601D5164305
:100BD00000E096432E604D68DAF80060AD0355469C
:100BE00001D5164300E096432E604D68DBF80060A7
:100BF000ED025D4601D5164300E096432E604D6838
:100C0000DEF80060AD02754601D5164300E096435C
:100C10002E60641C0D682A46E5407FF431AFBDE8C4
:100C2000F88F000000040140000011100010024085
:100C30000000014000080140000C0140001001408C
:100C400000140140C26821EA02030A4043EA02415B
:100C5000016170470AB1016170470904FBE70000B8
:100C60000148806870470000000000200248816849
:100C7000027811448160704700000020074810B5D9
:100C8000016841F010010160032000F075F80020B8
:100C900000F006F800F024F8002010BD002002400B
:100CA00070B50D4D04464FF47A712878B1FBF0F021
:100CB0000A490968B1FBF0F000F0ECFA48B9102CD1
:100CC00007D200222146501E00F036F800206C604A
:100CD00070BD012070BD0000000000200C0000204D
:100CE0000C4808B5816941F001018161816901F019
:100CF00001010091C16941F08051C161C06900F0FA
:100D0000805000900448416821F0E06141F000719A
:100D1000416008BD0010024000000140002809DBCE
:100D200000F01F02012191404009800000F1E02005
:100D3000C0F8001170470000F0B40E4B1B680C4661
:100D4000C3F30223C3F10705042D00D90425191D9F
:100D5000072901D2002300E0DB1E012606FA05F177
:100D6000491E214099409E40761E16403143F0BCFA
:100D700001F0A8B90CED00E0064900F00702086890
:100D80004FF6FF03184040EA0220034A1043086070
:100D9000704700000CED00E00000FA052DE9F04777
:100DA0000F46050061D0434E306800F00700B8429E
:100DB00009D2306820F0070038433060306800F016
:100DC0000700B84251D128683B4C810712D5400733
:100DD00003D5606840F4E06060602878000703D5C0
:100DE000606840F4605060606068A96820F0F000BE
:100DF000084360602878C00728D06868012810D0B0
:100E00002168022810D0890700292EDA616821F0B4
:100E1000030101436160FFF723FF804641F28839F7
:100E20000DE021688903EFE78901EDE7FFF718FF7F
:100E3000A0EB0801494502D90320BDE8F0876068AE
:100E4000696800F00C00B0EB810FEFD1306800F062
:100E50000700B8420BD9306820F0070038433060F3
:100E6000306800F00700B84201D00120E5E728789B
:100E7000400705D56068E96820F4E06008436060D9
:100E80002878000706D56068296920F4605040EA98
:100E9000C100606000F038F86168084AC1F30311CE
:100EA000515CC8400649086006480068FFF7F8FE34
:100EB0000020C2E70020024000100240082800087D
:100EC0000C0000200400002004480549006849681F
:100ED000044AC1F30221515CC84070470C00002055
:100EE00000100240182800080448054900684968B5
:100EF000044AC1F3C221515CC84070470C00002075
:100F0000001002401828000812A185B00FC98DE812
:100F10000F0014A0144A006804905168134801F0AF
:100F20000C03042B10D0082B0ED1C1F38343C9034B
:100F30001DF803000AD5516804AAC1F34041515C71
:100F40000A4A5043B0FBF1F005B0704708494843E6
:100F5000FAE7000002030405060708090A0B0C0D56
:100F60000E0F1010010200000010024000127A0063
:100F700000093D002DE9F84F040070D02078C04DE5
:100F8000C00749D06868C0F38100012807D06868AD
:100F9000C0F38100022809D16868C00306D528681B
:100FA000800339D560680028E7D035E06068B0F587
:100FB000803F0BD010B1B0F5A02F11D0286820F4DD
:100FC00080302860286820F4802002E0286840F4FF
:100FD00080302860606890B1FFF742FE06460AE064
:100FE000286840F480202860F0E700BFFFF738FE53
:100FF000801B642873D828688003F7D50CE0FFF7BE
:101000002FFE064605E000BFFFF72AFE801B64287E
:10101000F0D828688003F7D420789A4E80074FF0E4
:1010200001094FF0000839D5686810F00C0F07D09F
:101030006868C0F38100022809D16868C00306D43B
:101040002868800714D52069012808D110E020699C
:10105000B0B1C6F80090FFF703FE074605E00AE1CD
:10106000FFF7FEFDC01B0228C4D828688007F7D50B
:101070002868616920F0F80040EAC10028600DE0AE
:10108000C6F80080FFF7ECFD074604E0FFF7E8FD37
:10109000C01B022823D828688007F7D420780007CF
:1010A0002CD57948A169D9B1C0F80090FFF7D8FDD7
:1010B000074604E0FFF7D4FDC01B02280FD8686A7A
:1010C0008007F7D571484FF4FA510068B0FBF1F092
:1010D000009000BF0098411E0091FAD20EE080E01F
:1010E000C0F80080FFF7BCFD074604E0FFF7B8FD3D
:1010F000C01B022875D8686A8007F7D4207840079B
:1011000060D5E8690027C00008D4E86940F0805045
:10111000E861E869012700F0805000905C480168B0
:10112000C90513D40168834641F480710160FFF75B
:1011300097FD824606E000BFFFF792FDA0EB0A0094
:1011400064284ED8DBF80000C005F5D5E06801281A
:101150000AD008B1052813D0286A20F001002862BF
:10116000286A20F0040002E0286A40F001002862AA
:10117000E06841F2883B98B1FFF772FD82460BE0D0
:10118000286A40F004002862EEE700BFFFF768FD20
:10119000A0EB0A0159455AD8286A8007F6D50CE019
:1011A000FFF75EFD824605E0FFF75AFDA0EB0A015E
:1011B00059454CD8286A8007F6D41FB1E86920F059
:1011C0008050E861E06988B36968C1F38101022950
:1011D00044D00228C6F8608004D0FFF741FD0446E1
:1011E00038E034E0FFF73CFD074604E0FFF738FD48
:1011F000C01B02282BD828688001F7D4206AB0F5DC
:10120000803F05D16868A16820F400300843686019
:10121000D4E908010843696821F47411084368603F
:10122000C6F86090FFF71CFD044606E025E000BF0D
:10123000FFF716FD001B022809D828688001F7D5A2
:101240001BE000BFFFF70CFD001B022802D90320A2
:10125000BDE8F88F28688001F4D40EE00128F7D0AB
:101260006868226A00F48031914204D1616A00F416
:101270007010884201D00120EAE70020E8E7000072
:101280000010024000004242800442420C00002054
:101290000070004010B5401EB0F1807F01D30120E6
:1012A00010BD4FF0E02460610F21601700F00AFFCD
:1012B0000020A06107202061002010BD704770470A
:1012C000F8B5026804461068D168536910F00F0F32
:1012D0004FF0000553D003F0010601F49077374337
:1012E0005FD0C20705D0CA0503D5226C42F00102C7
:1012F0002264420705D5DA0703D0226C42F00202CD
:101300002264820705D5DA0703D0226C42F004027A
:101310002264020707D501F02002324303D0226C79
:1013200042F008022264226C002A34D0800604D5E0
:10133000880602D5204600F0ECFA20684069216C4E
:10134000C0F38010090700D430B3204600F0C0FA83
:101350002068416949061BD5416921F0400141617E
:10136000A06BA8B158494163A06BFFF7FFF90028B3
:1013700011D0A06B416B01B0BDE8F0400847830677
:101380000FD58B060DD52046BDE8F84000F0C1BA58
:101390002046FFF794FFF8BD2046FFF790FF256435
:1013A000F8BD266B2023012E52D1C60650D5CE069D
:1013B0004ED5106850680090506940062AD5A16B40
:1013C000086840680004000CEAD0A68D8642E7D980
:1013D000E0858869202818D0D06820F48070D0601B
:1013E0002068416921F0010141612068416921F0D3
:1013F0004001416184F83E3025632068C16821F0D6
:101400001001C160A06BFFF78DF9A08DE18D401A2E
:1014100081B219E0A08DE18D401A81B2E08D0028E3
:10142000BED00029BCD0D06820F49070D060206875
:10143000426922F00102426184F83E30256320684F
:10144000C26822F01002C2602046FFF737FFF8BDE5
:1014500005062BD50D0629D594F83D002128F6D197
:10146000A068B0F5805F01D12069B0B1206A411C4D
:101470002162216800784860E08C401E0004000C66
:10148000E084E4D12068C16821F08001C160206857
:10149000C16841F04001C160F8BD206A0088C0F316
:1014A00008005060206A801C2062E5E74006F3D502
:1014B0004806F1D5D168204621F04001D16084F87A
:1014C0003D3000F0F5F8F8BDCB17000870B504000A
:1014D00004D094F83D00002510B106E0012070BD55
:1014E00084F83C50204600F023F8242084F83D0086
:1014F0002068C16821F40051C160204600F064FA00
:101500002068016921F4904101612068416921F05E
:101510002A0141612068C16841F40051C16025641D
:10152000202084F83D0084F83E00002070BD0000BB
:101530002DE9F04186B000240646009401940294FF
:1015400003940068284988424BD12848C16941F476
:101550000031C161C16901F400310491816941F038
:10156000040181618069694600F0040004900C2048
:1015700000900220019003901D48FFF773FA1E4D62
:101580001C484FF08008C5E90004C5E90248202046
:101590000702EF612C61C5E905402846FFF7DCF939
:1015A00008B1FFF7BDF8B5636E621248134D1430F1
:1015B00001C51020A5E81101104845F810496C61DB
:1015C000C5E90647FFF7C8F908B1FFF7A9F8756341
:1015D0000022114626206E62FFF7AEFB2620FFF7A1
:1015E0009DFB06B0BDE8F0810044004000100240C1
:1015F000000801406C00024060000020A4000020B0
:1016000090F83E30202B0ED159B152B190F83C30B9
:10161000012B08D0012380F83C300023036300F045
:101620002FBA0120704702207047704770470000B2
:1016300070B5044690F83D00202830D169B362B3FC
:1016400094F83C0001282AD0012084F83C00216253
:10165000A284E28400252564212084F83D00636B88
:1016600010489862636B1048D862636B0F48186328
:10167000606B134645632668606B321DFFF79AF96D
:1016800021686FF04000086084F83C502068416990
:1016900041F080014161002070BD012070BD022039
:1016A00070BD000099180008C7180008DB17000873
:1016B00070477047FEE7000030B585B0002424482D
:1016C0000094019402940394816941F010018161B6
:1016D000816901F010010491816941F0200181616B
:1016E000816901F020010491816941F00401816167
:1016F000816901F004010491816941F0080181616F
:101700008069144D00F00800049000222021284632
:10171000FFF7A0FA681400900F48CDE9010469466C
:101720000E48FFF79FF9202000900120CDE9010429
:101730000220039069462846FFF794F900221146DB
:101740002820FFF7F9FA2820FFF7E8FA05B030BDA6
:10175000001002400008014000001110001001407C
:10176000FEE7FEE770477047FFF780BA30B58FB0ED
:1017700028216846FEF7EEFD14210AA8FEF7EAFDCF
:1017800002250120049000951020059000244FF4BC
:101790006010CDE9084007956846FFF7EBFB08B1FC
:1017A00072B6FEE70F20CDE90A054FF48060CDE95F
:1017B0000C4002210AA80E94FFF7F0FA002801D08D
:1017C00072B6FEE70FB030BD704710B5406A002119
:1017D000C185C184FFF773FD10BD70B5446A2068F0
:1017E000406994F83D10C0F3C0100025212904D1B0
:1017F00018B1E584204600F083F82068406994F829
:101800003E10C0F38010222904D118B1E58520468E
:1018100000F05EF8206C40F0100020642046FFF7D6
:101820004EFD70BD10B50146406A09680968890619
:101830001BD40021C1850168CA6822F48072CA6085
:1018400001684A6922F001024A6101684A6922F08E
:1018500040024A61202180F83E10016B012904D129
:101860000168CA6822F01002CA60016B012902D027
:10187000FFF7DBFE10BD818DFFF720FD10BD10B519
:10188000406A016B012902D0FFF7D0FE10BD818DA7
:101890004908FFF713FD10BD10B50146406A0968FD
:1018A000096889060CD40021C18401684A6922F0C4
:1018B00080024A610068C16841F04001C16010BD0A
:1018C000FFF7F6FE10BD10B5406AFFF7F2FE10BD3F
:1018D0000168CA6822F49072CA6001684A6922F0FD
:1018E00001024A61016B012904D10168CA6822F032
:1018F0001002CA60202180F83E1000210163704769
:101900000168CA6822F0C002CA60202180F83D1038
:10191000704708B590F83E10222901D0022008BD7A
:1019200082684FF480539A4201D1016921B1816AE2
:101930009A421BD04AB10AE00268816A5268C2F337
:1019400008020A80816A891C08E0026972B1026893
:10195000526802F07F020A70816A491C8162C18D5F
:10196000491E0904090CC18503D019E002685268B8
:10197000F1E70168CA6822F02002CA600168CA68FB
:1019800022F48072CA6001684A6922F001024A6149
:10199000202180F83E10016B012903D0FFF745FE9E
:1019A000002008BD002101630168CA6822F010020E
:1019B000CA6001680A68D20602D50A6849680091BF
:1019C000818DFFF77BFCEBE770B504460068016989
:1019D000E26821F44051114301612169A068084384
:1019E000616908432168CA6841F20C639A43024363
:1019F000CA6020684169A26921F4407111434161C4
:101A00001E492068884202D1FFF76EFA01E0FFF715
:101A10005BFA00EBC00101EB0012606864218000FA
:101A2000B2FBF0F3B3FBF1F36FF018067343B2FBB4
:101A3000F0F5B2FBF0F605EB8305322303EB051559
:101A4000B5FBF1F5B6FBF1F605F0F00505EB061573
:101A5000B2FBF0F6B2FBF0F0B0FBF1F06FF0180261
:101A6000504306EB800003EB0010B0FBF1F021685F
:101A700000F00F002844886070BD0000003801406D
:101A800038B581628285002513460446056422200C
:101A900084F83E00A26B13489062A26B1248D06299
:101AA000A26B12481063A06B0A4645632168A06BC5
:101AB000091DFEF77FFF206801684168009184F8E6
:101AC0003C50C16841F48071C1602068416941F0B7
:101AD000010141612068416941F0400141610020FC
:101AE00038BD0000251800087F180008DB17000823
:101AF0000148FFF7E5BB00001C000020FEE770472F
:101B00002DE9F04104464FF40070884615468242A4
:101B100000DD0546D4F80804C0F50076AE4200D3D7
:101B20002E4604F5027738443246FEF7CEFBB4F871
:101B30000804B5422844C0F30800C4F8080405D0DE
:101B4000AA1B08EB06013846FEF7BFFB236893F893
:101B50003D00202820D1114D287800281CD10120DB
:101B60002870D4F80814D4F80C04814212D08842AA
:101B700001D2091A01E0C0F500718EB2C1193246D6
:101B80001846FFF755FDB4F80C043044C0F30800C4
:101B9000C4F80C0400202870BDE8F0811800002073
:101BA00070B506460C46001D00F010F80546611998
:101BB00006F1140000F00AF8284470BD0048704790
:101BC00010290008004870473129000870B5054603
:101BD0000C460846291D00F009F90646A01905F132
:101BE000080100F003F90644A01905F10C0100F00A
:101BF000FDF8304470BD00000048704745290008DA
:101C000000487047662900080349016000214160CF
:101C10008160C160704700005C2800082DE9F8432E
:101C200004460D4608784978042640EA0120A97840
:101C300040EA0140E97840EA01676068B84204D2AE
:101C4000B900E068FEF7C6FAE060002080466760F1
:101C500010E0A919AA5D4B7842EA03228B78C97873
:101C600042EA034242EA0161A160E26842F82010C0
:101C7000401C361D61688142EBD8A819A95D4278E5
:101C8000361D41EA02218278C07841EA024141EAE8
:101C900000672069B84204D2B900A069FEF79AFA39
:101CA000A0610020276110E0A919AA5D4B7842EAE3
:101CB00003228B78C97842EA034242EA01616161FA
:101CC000A26942F82010401C361D21698142EBD8E0
:101CD000A819A95D4278361D41EA02218278C078B0
:101CE00041EA024141EA0067E069B84204D2B90022
:101CF000606AFEF76FFA6062E76100271DE0A919CC
:101D0000684600F06BFD301D064604E0A95DAA1987
:101D1000761C02F8011C00990144B142F6D8009AE1
:101D2000291802442A44491E02F8018C2162009AB3
:101D30008618606A40F827107F1CE069B842DED838
:101D40003046BDE8F8830000004870477C29000851
:101D50000048704720280008004870479D29000867
:101D600000487047BE29000800487047D129000884
:101D700000487047F229000810B5064B0A68B2FB0C
:101D8000F3F403FB1424B2FBF3F203681A44026079
:101D90000C6010BD00CA9A3B10B50A46C1F3C75388
:101DA0000BB103F56073002400F8014B00F8014B00
:101DB00000F8024B540100F8014CD40800F8044B21
:101DC000D40A00F8034CC1F3C34242EA03141A09CF
:101DD00000F8024C00F8012C11F1FF4F04D310F869
:101DE000011D41F080010170082010BD10B5C278BE
:101DF00052090A60037942EAC3020A60437942EA5F
:101E0000C3220A6010F8063F03F00F0342EAC34200
:101E10000A6010F8013B04781B0904F07F0453EAC0
:101E2000041305D04FF0804404EBC3531A430A60F7
:101E3000007800F0800042EA00600860082010BDD1
:101E40000A7842604B7842EA032242608B7842EA89
:101E500003424260CB7842EA036242600B790A1D7A
:101E60008360497943EA01218160937841EA034123
:101E70008160D27841EA02618160082070470000E9
:101E800000487047452A000800487047662A000845
:101E900002490022C0E9001282607047E828000869
:101EA00000487047742A000800487047952A0008C7
:101EB00070B506460C46001D00F008F8054661198D
:101EC00006F1140000F002F8284470BD70B50C460D
:101ED000054641682046FFF75FFF0646A019A9683E
:101EE000FFF75AFF0644A019E968FFF755FF304491
:101EF00070BD2DE9F041054600790870A8880E46AE
:101F0000000A487068680424000C88706868000E35
:101F1000C87000210CE0E868321950F821003055F3
:101F2000030A5370030C000E9370491CD070241DDB
:101F300068688842EFD8287C3055288A010A301911
:101F400041702969090C81702969090EC17000214D
:101F50000BE0A869321950F821003055030A53707C
:101F6000030C000E9370D070491C2869241D884210
:101F7000EFD8287F3055A88B0027010A301941700F
:101F8000E969090C8170E969090EC170241D13E02B
:101F9000686A50F82700FEF779F980463019414603
:101FA00000F029FC686A241D424650F827103019B9
:101FB000FEF78BF944447F1CE869B842E8D8204614
:101FC000BDE8F08170B50646007908700C46B0682F
:101FD000FEF75CF90546601C294600F00CFC601D0C
:101FE0002A46B168FEF771F9681D70BD2DE9F04110
:101FF000054600790870A8880C46000A4870A86851
:10200000FEF744F90646A01C314600F0F4FBA01D83
:102010003246A968FEF759F9B71DE868FEF736F9A8
:102020000646E019314600F0E6FB3F1DE019324656
:10203000E968FEF74AF93E442869FEF727F90746A2
:10204000A019394600F0D7FB361DA0193A46296978
:10205000FEF73BF9F0196969221821540B0A5370F5
:102060000B0C090E9370D170001DBDE8F081027950
:102070000A708288120A4A704268120C8A7042689A
:10208000120ECA70027A0A710289130A0A1D4B7174
:102090008168090C91708068000ED070082070472C
:1020A00070B506460C464068FEF7F0F80546204637
:1020B000294600F0A0FB201D2A467168FEF705F9AD
:1020C000281D70BD0907090E002804DB00F1E0207F
:1020D00080F80014704700F00F0000F1E02080F855
:1020E000141D704770B5174800F030FB16481749AB
:1020F000154A0160164941601648002116A3016186
:10210000C0E900321430FFF77FFD1248002224306E
:1021100016A1A0F110030261C0E9001314301B499D
:1021200040F80C1B1A4915A602C0174D0124FFF7F1
:102130006BFD1030FFF768FD40F8186CC0E90454DF
:1021400070BD0000E80000201000002000290008F9
:10215000A52A0008200E00202F73746D33322F73D0
:10216000797374656D5F7570000000002F73746D76
:1021700033322F656E636F64657273002F636D6415
:102180005F76656C00000000FF1A0008BC2800089C
:102190004428000810B520210B48FEF753FD0B49D9
:1021A00000200A464860886001F11000D0E9021062
:1021B00003681B689847064800F06AF9BDE81040BC
:1021C0004FF4FA70FEF72EBC00080140340E0020D8
:1021D000E800002008B5FEF751FDFFF7C7FAFFF74A
:1021E0006BFA1948416941F00101416140690022DF
:1021F00000F00100009011461020FEF79DFD102018
:10220000FEF78CFD002211461120FEF795FD1120EE
:10221000FEF784FD0E480D490C2201604FF4E131B8
:10222000416000218160C160C0E904128161C16127
:10223000FFF74CF908B172B6FEE700F00BF800BFEB
:10224000FFF7A8FFFCE70000001002400044004038
:102250001C00002010B5174C4FF40072211D01C95D
:10226000FFF7CEF90020C4F8E80CC4F8EC0CC4F871
:10227000F40CC4F8F00C04F63851204600F050FA83
:1022800004F65C51204600F04BFA214601F55762F6
:102290005FF0000001EB8003D3F8843C1BB1401CCD
:1022A0001928F7DB10BD01EB80016430C1F8842CE4
:1022B000506010BDE8000020004870473129000838
:1022C000406B704770B504460C300546FFF768FC5C
:1022D0002846216BBDE87040084700000048704761
:1022E00010290008F0B587B004463048009000215E
:1022F0002F48ADF8041002900D464FF4806603900D
:10230000CDE9040104EB8507D7F8200CE8B100897A
:10231000ADF80400D7F8200C00680290D7F8200C24
:1023200007F5426740680168896888470390386804
:1023300040680168C9688847CDE9040638686A467C
:10234000016920680368204698476D1C192DD9DB68
:102350005FF0000504EB8507D7F8840CF0B18088A6
:10236000ADF80400D7F8840C80680290D7F8840C8C
:1023700007F68447016889688847039038680168D0
:10238000C9688847CDE90406386801684968884704
:10239000014620686A460368204698476D1C192D3F
:1023A000D8DB012084F8FC0C07B0F0BDA42800089D
:1023B0000B2A00083EB504466846FFF769FD206811
:1023C0006A460A21036820469847FEF749FCC4F88C
:1023D00014043EBD3EB50D460446642903DB94F863
:1023E000FC0C00283FD0106804F627010368104653
:1023F0009847FF2184F82018FE2180B284F8211824
:1024000084F82208010A84F823180144C9B2C1F1F2
:10241000FF0184F8241884F82558291284F8261816
:1024200000210522C01D04E0A318521C93F8203897
:1024300019448242F8DBCA1701EB126222F0FF0254
:10244000891A80B22218401CC1F1FF0185B282F8BE
:102450002018B5F5806F07D82A4604F50261201DC3
:10246000FFF74EFB28463EBD07490322074B00936A
:102470008DF804200291216820466A460B680721E6
:1024800098474FF0FF303EBD0C2A00088C2800080A
:102490002DE9FF5F0446FEF7E3FB0546D4F8040D83
:1024A0000026291A42F6F820814201D984F8FC6CF2
:1024B000D4F8E80C28B1D4F8080DA84201D2C4F829
:1024C000E86CDFF850924FF0FF3B4FF008084FF0F8
:1024D000010A04F584676068211D806B006840680C
:1024E0004042C0F30802D4F8080282420AD0421CDB
:1024F0000B1DC1F80422C05CC2F30802C1F804221B
:10250000002812DA94F8FC0C58B1D4F8000D40F60B
:10251000C411281A884204D92046FFF74BFFC4F89B
:10252000005D002004B0BDE8F09FD4F8F81C0A1844
:10253000C4F8F82CD4F8E81C072928D099B301294D
:1025400049D0022955D0032959D0042961D0052941
:1025500068D006296ED00829BDD102EA0902C4F864
:10256000E86CFF2AB7D1D4F8F00C98B30A287ED0D3
:1025700006286ED00B286DD004EB8000D0F8F40A4A
:102580000028A8D001680A6839469047A3E7D4F824
:10259000F41C4A1CC4F8F42CC855D4F8EC0C401EAA
:1025A000C4F8EC0C51E002E0C4F8E88C93E7FF2893
:1025B00009D0FEF755FB401B05288CD984F8FC6C2C
:1025C0006FF00100AEE705F11400C4F8E8ACC4F800
:1025D000080D80E73FE0FE2809D0C4F8E86C94F8C5
:1025E000FC0C0028D2D12046FFF7E4FE73E702205E
:1025F0000CE0C4F8F46C0321C4F8EC0C15E0D4F83A
:10260000EC1C01EB0020C4F8EC0C0420C4F8E80C2E
:1026100061E702EA0902FF2A02D0C4F8E86C5AE72F
:102620000520F3E70621C4F8F00CC4F8E81CC4F850
:10263000F80C50E7D4F8F01C01EB0020C4F8F00CC3
:102640000720C4F8E80CD4F8EC0C00289ED1ABE7C6
:102650000DE053E05AE02046FFF7ACFE2046FFF7BE
:1026600041FEC4F8005D5846C4F8045D5AE701A86D
:10267000FFF70EFCFEF7F4FAD4F81414401A009099
:10268000394601A8FFF7DCFB00984FF47A71B0FBE4
:10269000F1F002990844029000984FF47A71B0FB6F
:1026A000F1F201FB120043F609514843039901EB93
:1026B00080100390FEF7D4FA4FF47A71B0FBF1F179
:1026C000029A511A491EC4F818144FF47A71B0FBDB
:1026D000F1F201FB120010494843104901EB801050
:1026E0000399084404F21C41C4F81C04081FFFF7B6
:1026F00043FBFEF7B5FAC4F8040DECE6394604F5E1
:102700005160FFF78BFA84F80CADE4E684F8FC6CBA
:10271000E1E60000FF000080F7C2FFFF00CA9A3B1D
:102720005FF0000200EB8203D3F8203C23B1521C7F
:10273000192AF7DB0020704700EB82037D32C3F8D3
:10274000201CC1E9022001207047000010B520497B
:102750000160204941600021C0F80812C0F80C1443
:10276000C0F8101400F5516280F8FC1C1A4BC2E945
:102770000031D16011619161D16151624FEA010272
:1027800000EB8203521CC3F8201C192AF8D3002244
:1027900000EB8203521CC3F8841C192AF8D30022D0
:1027A0004FF480638418521C84F820149A42F9D3A1
:1027B00000228418521C84F820189A42F9D3C0F8D9
:1027C000141DC0F81C1DC0F8201DC0F8281D10BD28
:1027D000D42800081C0000207428000810B500222E
:1027E00002608B5CD400A3400468521C2343036046
:1027F000042AF6D310BD0022D30021FA03F3835438
:10280000521C042AF8D370470000000000000000AA
:102810000102030406070809000000000102030486
:10282000726F7373657269616C5F6D7367732F523A
:10283000657175657374506172616D000000000010
:1028400000000000B11E0008A11B0008C51B000805
:10285000BD1B00080000000000000000CD1E0008A5
:10286000CD1B0008011C0008F91B00080000000037
:1028700000000000F31E00081D1C0008511D000888
:10288000491D00080000000000000000C51F0008EE
:1028900000000000611D0008591D00080000000034
:1028A00000000000ED1F000800000000711D00087E
:1028B000691D00080000000000000000C52200089B
:1028C000C1220008B9220008DD2200080000000033
:1028D00000000000D523000891240008000000003B
:1028E00000000000000000006F200008411E0008EA
:1028F000891E0008811E0008000000000000000082
:10290000A120000800000000A91E0008A11E000868
:102910003966313935663838313234366664666145
:1029200032373938643164336565626361383461E4
:102930000067656F6D657472795F6D7367732F548F
:1029400077697374003461383432623635663431F5
:10295000333038346463326231306662343834651F
:1029600061376631370067656F6D657472795F6DC9
:102970007367732F566563746F7233003966306501
:1029800039386264613635393831393836646466CD
:102990003533616661376134306534390031316116
:1029A00062643733316332353933333236316364FD
:1029B0003631383362643132643632393500726F01
:1029C0007373657269616C5F6D7367732F4C6F67AA
:1029D00000306164353166383866633434383932F2
:1029E0006638633130363834303737363436303045
:1029F0003500726F7373657269616C5F6D736773B5
:102A00002F546F706963496E666F00004D65737374
:102A10006167652066726F6D206465766963652005
:102A200064726F707065643A206D65737361676579
:102A3000206C6172676572207468616E20627566D1
:102A40006665722E0063643731363663373463351A
:102A500035326333313166626363326665356137BF
:102A60006263323839007374645F6D7367732F5417
:102A7000696D6500393932636538613136383763DD
:102A8000656338633862643838336563373363614C
:102A900034316431007374645F6D7367732F5374E2
:102AA00072696E6700000000CC2A00080000002058
:102AB0001C00000028010008E82A00081C00002073
:102AC000D4140000440100081DF6FFFF01000000BF
:102AD00010000000000000000024F40000000000CE
:082AE0000000000000000000EE
:04000005080000ED02
:00000001FF
